:0440000057EF20F066
:104008002B102B102B102B102B102B102B102B10D0
:104018002B102B102B102B102B102B102B102B10C0
:104028002B102B102B102B101B272B102B102B10A9
:104038002B102B102B102B102B102B102B100E2AA3
:104048002B102B102B102B102B102B102B102B1090
:104058002B102B102B102B102B102B102B102B1080
:104068002B102B102B102B102B102B102B102B1070
:104078002B102B102B102B102B102B102B102B1060
:104088002B102B102B102B102B102B102B102B1050
:104098002B102B102B102B102B102B102B102B1040
:1040A8002B102B10FF0038EF44F0005049433138F3
:1040B8004634364B34320000000000000000000097
:1040C80000000000000000000000005049433138A3
:1040D8004634364B34320000000000000000000077
:1040E800000000000000000000000000803AC63F09
:1040F8002001803AC63F2101503AC33F0900503A97
:10410800C33F0803020102010000000200005A0038
:10411800000000005AFFFF0300005A0500000000DD
:10412800040000000003000000000200000000017D
:104138000000000000020001002200020000000050
:104148000100CC02000100FCC222000200000000B5
:104158000100CC02000100FCC222000200000000A5
:104168000100CC02000100FCC22200020000000095
:104178000100CC02000100FCC203CB3FBB3FC33FA0
:10418800513A503A0B3A0B02CB3FBB3FC33F513A2F
:10419800503A0A3A0A03CA3FBA3FC23F413A403A44
:1041A800033A0302CA3FBA3FC23F413A403A023A91
:1041B8000204CD3FBD3FC53F713A703A1C3A1C0519
:1041C800CD3FBD3FC53F713A703A1D3A1D07CD3FFF
:1041D800BD3FC53F713A703A1F3A1F06CD3FBD3FFC
:1041E800C53F713A703A1E3A1E07CC3FBC3FC43FE8
:1041F800613A603A173A1701CC3FBC3FC43F613A75
:10420800603A113A1106CC3FBC3FC43F613A603A6C
:10421800163A1602CC3FBC3FC43F613A603A123AA4
:104228001200CC3FBC3FC43F613A603A103A1007D5
:10423800CA3FBA3FC23F413A403A073A0702CE3F27
:10424800BE3FC63F813A803A223A2206CA3FBA3F69
:10425800C23F413A403A063A06504943313846345B
:10426800364B34320000000000000000000000005F
:104278000000000000000000005049433138463477
:10428800364B34320000000000000000000000003F
:1042980000000000000000000007CB3FBB3FC33F09
:1042A800513A503A0F3A0F06CB3FBB3FC33F513A02
:1042B800503A0E3A0E05CA3FBA3FC23F413A403A19
:1042C800053A0504CA3FBA3FC23F413A403A043A68
:1042D8000405CC3FBC3FC43F613A603A153A150427
:1042E800CC3FBC3FC43F613A603A143A1403CC3F18
:1042F800BC3FC43F613A603A133A1305CB3FBB3F1A
:10430800C33F513A503A0D3A0D00CA3FBA3FC23F37
:10431800413A403A003A0004CB3FBB3FC33F513AD1
:10432800503A0C3A0C00000400000000070010008E
:104338000102000A0001010114000000000000FF52
:10434800000000005B6669726D776172655D2052DE
:104358006573657474696E6720636F6E666967203C
:1043680064756520746F206D69736D617463686925
:104378006E672076657273696F6E73005B7665721F
:1043880073696F6E5D204D6963726F636F6E7472CF
:104398006F6C6C6572203D2025730A005B76657230
:1043A80073696F6E5D20436F6E66696775726174BD
:1043B800696F6E203D2025750A005B76657273690A
:1043C8006F6E5D204669726D77617265203D2025AC
:1043D800750A005B6669726D776172655D20496E6A
:1043E800697469616C697A696E67003C756E6B6E99
:1043F8006F776E3E004C582D43656E74657200529F
:10440800582D43656E746572004C592D43656E7462
:1044180065720052592D43656E7465720054726955
:10442800616E676C65000A5B253038585D20004373
:104438006972636C6500537175617265004C582D23
:104448004D696E0052582D4D696E004C592D4D69BD
:104458006E0052592D4D696E0053656C656374008A
:104468004C582D4D61780052582D4D6178004C59AB
:104478002D4D61780052592D4D61780043726F734C
:104488007300526967687400537461727400253050
:1044980032582000446F776E004C656674006C6C6F
:1044A80073004C31005231004C32005232004C3310
:1044B800005233004C58005258004C5900525900D1
:1044C8005570000020EED6F0BC51D926BD51DA2235
:1044D800DE04D8B40AD020EED6F0BC51D926BD519E
:1044E800DA22020EDE18D8A44AD220EE36F1BC51E8
:1044F800D926BD51DA22DF50D8B447D1000EE46F77
:10450800E451BC25BE6F000EBD21BF6FC00EBE2595
:10451800D96E000EBF21DA6EDF50DE6FE4510F0D49
:10452800BCC0BEF0BDC0BFF0F350BE27F450BF23DF
:104538003B0EBE25D96E010EBF21DA6EDF50D56F56
:10454800E4510F0DBCC0BEF0BDC0BFF0F350BE2794
:10455800F450BF23400EBE25D96E010EBF21DA6E7E
:10456800DF50DF6FE4510F0DBCC0BEF0BDC0BFF01F
:10457800F350BE27F450BF23450EBE25D96E010E59
:10458800BF21DA6EDF50C46FDF51DE5DD8B07CD05A
:10459800E451BC25BE6F000EBD21BF6FC00EBE2505
:1045A800D96E000EBF21DA6E000E9D6F000E9E6F51
:1045B800FE0E9F6F420EA06FD551DFC0C0F0C16BD9
:1045C800C05F000EC15BC0C066F0C1C067F0000EDE
:1045D80067BFFF0E686F696F010E03EC3FF066C09E
:1045E80078F067C079F068C07AF069C07BF0D5517F
:1045F800DEC0C2F0C36BC25F000EC35BC2C066F010
:10460800C3C067F0000E67BFFF0E686F696F010EC9
:1046180003EC3FF066C074F067C075F068C076F0D0
:1046280069C077F0EFEC31F074C095F075C096F082
:1046380076C097F077C098F0000E916F000E926FD9
:10464800800E936F3F0E946F000E8D6F000E8E6F6D
:10465800000E8F6F000E906F95EC4EF08DC099F0A4
:104668008EC09AF08FC09BF090C09CF0DDEC2AF0D1
:1046780099C0B2F09AC0B3F09BC0B4F09CC0B5F03A
:10468800AAEC48F0B2517CD0E451BC25BE6F000EB4
:10469800BD21BF6FC00EBE25D96E000EBF21DA6ED8
:1046A800000E9D6F000E9E6FFE0E9F6F420EA06F54
:1046B800DF51C4C0C0F0C16BC05F000EC15BC0C099
:1046C80066F0C1C067F0000E67BFFF0E686F696FC4
:1046D800010E03EC3FF066C078F067C079F068C05F
:1046E8007AF069C07BF0DF51DEC0C2F0C36BC25FF5
:1046F800000EC35BC2C066F0C3C067F0000E67BFA0
:10470800FF0E686F696F010E03EC3FF066C074F02E
:1047180067C075F068C076F069C077F0EFEC31F0EB
:1047280074C095F075C096F076C097F077C098F091
:10473800000E916F000E926F800E936F3F0E946F74
:10474800000E8D6F000E8E6F000E8F6F000E906F33
:1047580095EC4EF08DC099F08EC09AF08FC09BF00A
:1047680090C09CF0DDEC2AF099C0B2F09AC0B3F08A
:104778009BC0B4F09CC0B5F0AAEC48F0B251800FD1
:10478800DF6EE42B030EE465BBD620EE77F1BC5157
:10479800D926BD51DA22DF50E26F20EE7CF1BC5100
:1047A800D926BD51DA22DF50E36FE251D8B472D076
:1047B80020EEC2F0BC51D926BD51DA22DF50D66FA7
:1047C80020EEC3F0BC51D926BD51DA22DF50D76F95
:1047D800D651BE6FBF6B7F0EC06F000EC16FE25126
:1047E800C05F000EC15BBE51C05DC151800AC26F7F
:1047F800BF51800AC259D8B01CD0E251BE6FBF6BFE
:10480800800EBE27000EBF23D651C06FC16BBE51AC
:10481800C05DC151800AC26FBF51800AC259D8B069
:1048280008D020EEC2F0BC51D926BD51DA227F0E45
:10483800DF6ED751BE6FBF6B7F0EC06F000EC16FAA
:10484800E251C05F000EC15BBE51C05DC151800A1C
:10485800C26FBF51800AC259D8B01CD0E251BE6F96
:10486800BF6B800EBE27000EBF23D751C06FC16B30
:10487800BE51C05DC151800AC26FBF51800AC25982
:10488800D8B008D020EEC3F0BC51D926BD51DA22E9
:104898007F0EDF6EE351D8B472D020EEC0F0BC5169
:1048A800D926BD51DA22DF50D86F20EEC1F0BC51B5
:1048B800D926BD51DA22DF50D96FD851BE6FBF6BF0
:1048C8007F0EC06F000EC16FE351C05F000EC15B69
:1048D800BE51C05DC151800AC26FBF51800AC25922
:1048E800D8B01CD0E351BE6FBF6B800EBE27000E40
:1048F800BF23D851C06FC16BBE51C05DC151800A82
:10490800C26FBF51800AC259D8B008D020EEC0F09B
:10491800BC51D926BD51DA227F0EDF6ED951BE6F48
:10492800BF6B7F0EC06F000EC16FE351C05F000EFA
:10493800C15BBE51C05DC151800AC26FBF51800AC0
:10494800C259D8B01CD0E351BE6FBF6B800EBE27D2
:10495800000EBF23D951C06FC16BBE51C05DC1519C
:10496800800AC26FBF51800AC259D8B008D020EE61
:10497800C1F0BC51D926BD51DA227F0EDF6E20EE80
:10498800D6F0BC51D926BD51DA22DF50D8A4120086
:1049980020EE81F1BC51D926BD51DA22DF50D8B4BE
:1049A800C6D020EEC2F0BC51D926BD51DA22DF5064
:1049B800DA6F20EEC3F0BC51D926BD51DA22DF50A0
:1049C800DB6F20EE8BF1BC51D926BD51DA22DF50C6
:1049D800E06F5D0EBC25C56F000EBD21C66F470E8A
:1049E800BC25C76F000EBD21C86F3C0EBC25C96F22
:1049F800000EBD21CA6F520EBC25CB6F000EBD2123
:104A0800CC6FC5C06CF0C6C06DF0EDEC47F0000986
:104A1800D8B41DD07F0EBE6F000EBF6FE051BE5FD1
:104A2800000EBF5BDA51C06FC16BBE51C05DC15192
:104A3800800AC26FBF51800AC259D8B008D0C5C019
:104A480066F0C6C067F0000E686FFFEC52F0C7C092
:104A58006CF0C8C06DF0EDEC47F00009D8B41CD07C
:104A6800DA51BE6FBF6BE051C06FC16B800EC027BB
:104A7800000EC123BE51C05DC151800AC26FBF5133
:104A8800800AC259D8B008D0C7C066F0C8C067F05D
:104A9800000E686FFFEC52F0C9C06CF0CAC06DF030
:104AA800EDEC47F00009D8B41DD07F0EBE6F000EA4
:104AB800BF6FE051BE5F000EBF5BDB51C06FC16BC3
:104AC800BE51C05DC151800AC26FBF51800AC25930
:104AD800D8B008D0C9C066F0CAC067F0000E686FC9
:104AE800FFEC52F0CBC06CF0CCC06DF0EDEC47F0B1
:104AF8000009D8B41CD0DB51BE6FBF6BE051C06F4A
:104B0800C16B800EC027000EC123BE51C05DC151CC
:104B1800800AC26FBF51800AC259D8B008D0CBC032
:104B280066F0CCC067F0000E686FFFEC52F020EE24
:104B380086F1BC51D926BD51DA22DF50D8B4120013
:104B480020EEC0F0BC51D926BD51DA22DF50DC6F0F
:104B580020EEC1F0BC51D926BD51DA22DF50DD6FFD
:104B680020EE90F1BC51D926BD51DA22DF50E16F19
:104B7800B50EBC25CD6F000EBD21CE6F9F0EBC2596
:104B8800CF6F000EBD21D06F940EBC25D16F000EE3
:104B9800BD21D26FAA0EBC25D36F000EBD21D46FE4
:104BA800CDC06CF0CEC06DF0EDEC47F00009D8B484
:104BB8001DD07F0EBE6F000EBF6FE151BE5F000EAD
:104BC800BF5BDC51C06FC16BBE51C05DC151800A73
:104BD800C26FBF51800AC259D8B008D0CDC066F0A4
:104BE800CEC067F0000E686FFFEC52F0CFC06CF0DB
:104BF800D0C06DF0EDEC47F00009D8B41CD0DC5102
:104C0800BE6FBF6BE151C06FC16B800EC027000E35
:104C1800C123BE51C05DC151800AC26FBF51800A15
:104C2800C259D8B008D0CFC066F0D0C067F0000E27
:104C3800686FFFEC52F0D1C06CF0D2C06DF0EDECB3
:104C480047F00009D8B41DD07F0EBE6F000EBF6FAD
:104C5800E151BE5F000EBF5BDD51C06FC16BBE513D
:104C6800C05DC151800AC26FBF51800AC259D8B015
:104C780008D0D1C066F0D2C067F0000E686FFFECB4
:104C880052F0D3C06CF0D4C06DF0EDEC47F00009E1
:104C9800D8B41200DD51BE6FBF6BE151C06FC16B5C
:104CA800800EC027000EC123BE51C05DC151800ACD
:104CB800C26FBF51800AC259D8B01200D3C066F083
:104CC800D4C067F0000E686FFFEC52F0120060006D
:104CD80033F0F6FF600037F0F7FF000EF86E600063
:104CE8003BF0D9FF60003FF0DAFF0F0EF76403D006
:104CF8000800F55007D06F00DBFFE9FF6F00DFFF0A
:104D0800EAFFEF50DF6E10D2010E0C24106E000E79
:104D18000D20116E600043F0F6FF600047F0F7FFCA
:104D2800000EF86E0F0EF76403D00800F55007D098
:104D38006F00DBFFE9FF6F00DFFFEAFFEF500009BC
:104D4800D8A405D0000E176E000E166E03D0000E04
:104D5800176E166820EE01F00E50D9260F50DA2291
:104D680060005BF0DFFF1200010E0C24106E000ED5
:104D78000D20116E600043F0F6FF600047F0F7FF6A
:104D8800000EF86E20EE01F00E50D9260F50DA22F0
:104D98000F0EF76403D00800F55007D06F00DBFF53
:104DA800E9FF6F00DFFFEAFFEF50DF6E1200010E30
:104DB8000C24106E000E0D20116E600043F0F6FFFB
:104DC800600047F0F7FF000EF86E20EE01F00E507D
:104DD800D9260F50DA220F0EF76403D00800F550D9
:104DE80007D06F00DBFFE9FF6F00DFFFEAFFEF503E
:104DF800DF6E20EE02F00E50D9260F50DA22010E97
:104E08000C24106E000E0D20116E600043F0F6FFAA
:104E1800600047F0F7FF000EF86E0F0EF76409D038
:104E280009006F00D4FF12F009006F00D4FF13F0DF
:104E38000CD06F00DBFFE9FF6F00DFFFEAFF6F00B8
:104E4800B8FF12F06F00B8FF13F013C012F0136A26
:104E58001250DF6E1200010E0C24106E000E0D2091
:104E6800116E600043F0F6FF600047F0F7FF000E98
:104E7800F86E20EE01F00E50D9260F50DA220F0EF0
:104E8800F76403D00800F55007D06F00DBFFE9FF97
:104E98006F00DFFFEAFFEF50DF6E20EE02F00E50EA
:104EA800D9260F50DA22010E0C24106E000E0D20A8
:104EB800116E600043F0F6FF600047F0F7FF000E48
:104EC800F86E0F0EF76411D009006F00D4FF12F0CE
:104ED80009006F00D4FF13F009006F00D4FF14F02D
:104EE80009006F00D4FF15F012D06F00DBFFE9FF57
:104EF8006F00DFFFEAFF6F00B8FF12F06F00B8FF26
:104F080013F06F00B8FF14F06F00B8FF15F013C06E
:104F180012F014C013F015C014F0156A1250DF6EA9
:104F280020EE03F00E50D9260F50DA22010E0C2481
:104F3800106E000E0D20116E600043F0F6FF600049
:104F480047F0F7FF000EF86E0F0EF76411D0090056
:104F58006F00D4FF12F009006F00D4FF13F00900AE
:104F68006F00D4FF14F009006F00D4FF15F012D0C1
:104F78006F00DBFFE9FF6F00DFFFEAFF6F00B8FF9C
:104F880012F06F00B8FF13F06F00B8FF14F06F0055
:104F9800B8FF15F0110E05D0D8901532143213321F
:104FA8001232E82EF9D71250DF6E20EE04F00E50C0
:104FB800D9260F50DA22010E0C24106E000E0D2097
:104FC800116E600043F0F6FF600047F0F7FF000E37
:104FD800F86E0F0EF76411D009006F00D4FF12F0BD
:104FE80009006F00D4FF13F009006F00D4FF14F01C
:104FF80009006F00D4FF15F012D06F00DBFFE9FF46
:105008006F00DFFFEAFF6F00B8FF12F06F00B8FF14
:1050180013F06F00B8FF14F06F00B8FF15F0190E09
:1050280005D0D8901532143213321232E82EF9D73F
:105038001250DF6E1200010E0C24106E000E0D20AF
:10504800116E600043F0F6FF600047F0F7FF000EB6
:10505800F86E20EE01F00E50D9260F50DA220F0E0E
:10506800F76403D00800F55007D06F00DBFFE9FFB5
:105078006F00DFFFEAFFEF50DF6E020E0E24016EB5
:10508800000E0F20026E020E0C24106E000E0D2072
:10509800116E600043F0F6FF600047F0F7FF000E66
:1050A800F86E0F0EF76409D009006F00D4FF03F003
:1050B80009006F00D4FF04F00CD06F00DBFFE9FF9C
:1050C8006F00DFFFEAFF6F00B8FF03F06F00B8FF63
:1050D80004F0010E0C24126E000E0D20136E6000F9
:1050E8004BF0F6FF60004FF0F7FF000EF86E0F0E62
:1050F800F76403D00800F55007D06F00DBFFE9FF25
:105108006F00DFFFEAFFEF50146E1450056E066A59
:1051180067EC4DF0120020EE01F00E50D9260F502A
:10512800DA22FF0EDF6E1200600033F0F6FF600037
:1051380037F0F7FF000EF86E0F0EF76403D0080083
:10514800F55007D06F00DBFFE9FF6F00DFFFEAFFD4
:10515800EF50106E116A1150000AD8A4DCD7105015
:10516800010AD8B4D1D5030AD8B4FED5010AD8B4F7
:105178001ED6070AD8B46FD6010AD8B45CD7FA0A83
:10518800CAD7A951D96EDA6A6F007BFFF6FF6F00A4
:1051980077FFF7FFF86A0800F550250AD8A4EED182
:1051A800A951D96EDA6ADE2A000EDD22000EF56FEB
:1051B800000EF46FF4C0F8F0F5C0F9F0F669F7697D
:1051C800000EB36F000E13D0F881A951D96EDA6AB8
:1051D800DE2A000EDD2230D0F883F7D7F885F5D720
:1051E800F887F3D7F889F1D7000EB36F010EB26FC5
:1051F80023D0A951D96EDA6A6F007BFFF6FF6F00E2
:1052080077FFF7FFF86A0800F550AB6FAC6BAC514D
:10521800000AD8A4E9D7AB51200AD8B4E1D7030AC9
:10522800D8B4E0D7080AD8B4D9D7060AD8B4CCD7A6
:105238001D0AD8B4D1D7D8D7B251B311D8B4D9D759
:10524800F8B1F893A951D96EDA6A6F007BFFF6FFBF
:105258006F0077FFF7FFF86A0800F5502A0AD8A40C
:105268001CD0A951D96EDA6ADE2A000EDD22AA51B5
:10527800D96EDA6A020EDF26DF5CD96EDA6A6F0051
:1052880078FFF4F06F0078FFF5F0F5AF38D0F881CB
:10529800F46DF51FD8B0F52B32D0A951D96EDA6A62
:1052A8006F0078FF6DF06F0074FF6EF0A4EC3FF0B4
:1052B8006DC0F4F06EC0F5F006D0A951D96EDA6A67
:1052C800DE2A000EDD22D00EAB6FFF0EAC6FA951A7
:1052D800D96EDA6A6F007BFFF6FF6F0077FFF7FF82
:1052E800F86A0800F550AD6FAE6BAB51AD27AC5105
:1052F800AE23AE5104E10A0EAD5DD8A0DED7A951A8
:10530800D96EDA6A6F007BFFF6FF6F0077FFF7FF51
:10531800F86A0800F550730AD8B417D0A951D96EA5
:10532800DA6A6F0078FF66F06F0074FF67F0A60E08
:10533800686F440E696F000E6B6F030E6A6F83EC23
:1053480045F066516711D8A43BD0A951D96EDA6AE5
:105358006F007BFFF6FF6F0077FFF7FFF86A080022
:10536800F550730AD8B404D0000EB56F030E03D0FD
:10537800000EB56F010EB46FA951D96EDA6AB45137
:10538800DE26B551DD22AA51D96EDA6A020EDF2671
:10539800DF5CD96EDA6A6F0078FFAFF06F0078FFD4
:1053A800B0F0A7C070F0A8C071F0AFC072F0B0C084
:1053B80073F05EEC3EF070C0A7F071C0A8F0120068
:1053C800A951D96EDA6A6F007BFFF6FF6F0077FF8D
:1053D800F7FFF86A0800F550750AD8A439D0A95122
:1053E800D96EDA6ADE2A000EDD22AA51D96EDA6A8F
:1053F800DF50DF2ADF2AD96EDA6A6F0078FFABF058
:105408006F0074FFACF0ABC0B6F0ACC0B7F0B86BCF
:10541800B96BBA6BBB6BBC6BBD6BA7C084F0A8C083
:1054280085F0B6C086F0B7C087F0B8C088F0B9C0BC
:1054380089F0BAC08AF0BBC08BF0BCC08CF0BDC08C
:105448008DF037EC3BF084C0A7F085C0A8F01200BF
:10545800A951D96EDA6A6F007BFFF6FF6F0077FFFC
:10546800F7FFF86A0800F550780AD8B40FD0A951A8
:10547800D96EDA6A6F007BFFF6FF6F0077FFF7FFE0
:10548800F86A0800F550580AD8A449D0A951D96E2D
:10549800DA6A6F007BFFF6FF6F0077FFF7FFF86AA5
:1054A80008006F00D4FFB1F0A951D96EDA6ADE2A7C
:1054B800000EDD22AA51D96EDA6ADF50DF2ADF2A10
:1054C800D96EDA6A6F0078FFABF06F0074FFACF04A
:1054D800ABC0B6F0ACC0B7F0B86BB96BBA6BBB6B0E
:1054E800BC6BBD6BA7C084F0A8C085F0B6C086F0C1
:1054F800B7C087F0B8C088F0B9C089F0BAC08AF0E0
:10550800BBC08BF0BCC08CF0BDC08DF0B1C08EF0BC
:10551800A4EC36F084C0A7F085C0A8F01200A95109
:10552800D96EDA6A6F007BFFF6FF6F0077FFF7FF2F
:10553800F86A0800F550250AD8A415D0A951D96EE3
:10554800DA6ADE2A000EDD22000E686F250E676F0C
:10555800A7C069F0A8C06AF04EEC4CF0000EA86F26
:10556800010EA76F1200A951D96EDA6ADE2A000E61
:10557800DD22000EA86F000EA76F1200A951D96E88
:10558800DA6A6F007BFFF6FF6F0077FFF7FFF86AB4
:105598000800F550676F686BA7C069F0A8C06AF08B
:1055A8004EEC4CF0A951D96EDA6ADE2A000EDD22E3
:1055B800D5D79C51800BA56F9C519C25A76F9BBF8D
:1055C800A781A751D8B40DD0A729D8A408D0000E18
:1055D800996F000E9A6F000E9B6F000E9C6F9B8F49
:1055E80008D0000E996F000E9A6F000E9B6F000E88
:1055F8009C6FA051800BA51BA051A025A66F9FBF33
:10560800A681A651D8B40DD0A629D8A408D0000EDA
:105618009D6F000E9E6F000E9F6F000EA06F9F8FF4
:1056280008D0000E9D6F000E9E6F000E9F6F000E3B
:10563800A06FA651D8B403D0A751D8A409D0000EA2
:10564800996F000E9A6F000E9B6F000E9C6F1200F0
:105658009F5199036F00CCFFB0F06F00D0FFB1F0FD
:10566800B051A86FA96BAA6BAB6BB151AC6FAD6BA6
:10567800AE6BAF6B9E519A036F00CCFFB0F06F001A
:10568800D0FFB1F0B051A827000EA923AA23AB235D
:10569800B151AC27000EAD23AE23AF239D519B0320
:1056A8006F00CCFFB0F06F00D0FFB1F0B051A82769
:1056B800000EA923AA23AB23B151AC27000EAD23BA
:1056C800AE23AF23AAC0ABF0A9C0AAF0A8C0A9F026
:1056D800A86B9D519A036F00CCFFB0F06F00D0FF0C
:1056E800B1F0B051A827B151A923000EAA23000E8A
:1056F800AB239E5199036F00CCFFB0F06F00D0FF31
:10570800B1F0B051A827B151A923000EAA23000E69
:10571800AB23AAC0ABF0A9C0AAF0A8C0A9F0A86B97
:105728009D5199036F00CCFFB0F06F00D0FFB1F02E
:10573800B051A827B151A923000EAA23000EAB230C
:105748009F519A036F00CCFFB0F06F00D0FFB1F00B
:10575800B051AC27B151AD23000EAE23000EAF23DC
:105768009E519B036F00CCFFB0F06F00D0FFB1F0EB
:10577800B051AC27B151AD23000EAE23000EAF23BC
:105788009F519B036F00CCFFB0F06F00D0FFB1F0CA
:10579800B051A16FB151A26FA36BA46BA3C0A4F0C9
:1057A800A2C0A3F0A1C0A2F0A16BA151AC27A25145
:1057B800AD23A351AE23A451AF23AB51AC27000EA8
:1057C800AD23AE23AF23AAC0ABF0A9C0AAF0A8C0EE
:1057D800A9F0A86BA651A7C0A1F0A26BA127000E43
:1057E800A223820EA125B06FFF0EA221B16F0FD0A8
:1057F800D890AC37AD37AE37AF37ABBFAC81D890A8
:10580800A837A937AA37AB37B007D8A0B107AEAFCA
:10581800EFD7000EA66FABAF17D0FF0EA815A16F7C
:10582800FF0EA915A26FFF0EAA15A36F7F0EAB1569
:10583800A46FA151A211A311A411D8B403D0010ED1
:10584800A66F02D0ACB1FBD7A651D8B41FD0010EB9
:10585800AC27000EAD23AE23AF23AFA117D0ACC049
:10586800A1F0ADC0A2F0AEC0A3F0AFC0A4F0A435C3
:10587800A433A333A233A133A1C0ACF0A2C0ADF0CE
:10588800A3C0AEF0A4C0AFF0B04BB12BB1BF0DD0E8
:10589800B15103E1B029D8A008D0000EAC6F000EBA
:1058A800AD6F800EAE6F7F0E20D0B1BF05D0B15165
:1058B8000EE1B005D8B00BD0000EAC6F000EAD6F86
:1058C800000EAE6F000EAF6F000EA56F0FD0B0C008
:1058D800A7F0FF0EAC17FF0EAD177F0EAE17000E28
:1058E800AF17A7B1AE8FD890A731AF6FA551AF133F
:1058F800ACC099F0ADC09AF0AEC09BF0AFC09CF0C0
:105908001200000E706F000E6F6F1FEC51F020EE4A
:1059180001F07651D9267751DA226000BFF1DEFF17
:105928006000C3F1DDFF20EE04F07651D9267751EF
:10593800DA22000E696F050E686F000E676F000EA1
:10594800666F6FEC4FF0020E66256D6F000E6721D3
:105958006E6FBFEC53F00009D8B402D0010E01D02D
:10596800000EDF6E000E00017C6F7C51050D76C0C5
:1059780078F077C079F0F3507827F4507923090E3E
:105988007825D96E000E7921DA6E000E676F050E44
:10599800666F000E696F050E686F6FEC4FF07C51F3
:1059A8006627000E6723020E66256D6F000E6721BD
:1059B8006E6FBFEC53F0DF6E00017C2B0F0E7C6521
:1059C800D4D720EE59F07651D9267751DA22000E35
:1059D800696F050E686F000E676F550E666F6FEC86
:1059E8004FF0020E66256D6F000E67216E6FBFECDB
:1059F80053F00009D8B402D0010E01D0000EDF6EBA
:105A0800000E00017B6F000E7A6F7AC066F07BC0D3
:105A180067F0000E696F050E686F85EC52F076C06E
:105A280078F077C079F066517827675179235E0E50
:105A38007825D96E000E7921DA6E000E676F5A0E3E
:105A4800666F000E696F050E686F6FEC4FF07A5144
:105A580066277B516723020E66256D6F000E67214E
:105A68006E6FBFEC53F0DF6E00017A4B7B2B7B51DE
:105A780004E10C0E7A5DD8A0C8D720EE9AF07651D2
:105A8800D9267751DA22000E676F960E666F000EE0
:105A9800696F050E686F6FEC4FF0020E66256D6F2B
:105AA800000E67216E6FBFEC53F0DF6E000120EE31
:105AB8009FF07651D9267751DA22000E676F9B0E38
:105AC800666F000E696F050E686F6FEC4FF0020E7F
:105AD80066256D6F000E67216E6FBFEC53F0DF6EA9
:105AE800000120EEA4F07651D9267751DA22000E73
:105AF800696F050E686F000E676FA00E666F6FEC1A
:105B08004FF0020E66256D6F000E67216E6FBFECB9
:105B180053F00009D8B402D0010E01D0000EDF6E98
:105B2800000120EEA9F07651D9267751DA22000E2D
:105B3800696F050E686F000E676FA50E666F6FECD4
:105B48004FF0020E66256D6F000E67216E6FBFEC79
:105B580053F00009D8B402D0010E01D0000EDF6E58
:105B6800000120EEAEF07651D9267751DA22000EE8
:105B7800676FAA0E666F000E696F050E686F6FEC8F
:105B88004FF0020E66256D6F000E67216E6FBFEC39
:105B980053F0DF6E000120EEB3F07651D92677512D
:105BA800DA22000E676FAF0E666F000E696F050E82
:105BB800686F6FEC4FF0020E66256D6F000E67215F
:105BC8006E6FBFEC53F0DF6E120020EE11F029501B
:105BD800D9262A50DA226000B7F0DFFF20EE1BF04A
:105BE8002950D9262A50DA22DF50D8A4D4D020EE62
:105BF8001AF02950D9262A50DA22DF50D8A4CBD05F
:105C080020EE12F02950D9262A50DA22DE50DE1072
:105C1800D8A422D020EE18F02950D9262A50DA220A
:105C28006F0078FF2EF06F0074FF2FF001D810D0AE
:105C38000500FA6E2E50FD6E2F50FE6EFF6AFA5068
:105C480020EE0FF02B50D9262C50DA22DF5012000C
:105C58002D04D8B4E7D069D020EE12F02950D92607
:105C68002A50DA22DE04DE10D8A462D020EE18F022
:105C78002950D9262A50DA226F0078FF2EF06F00BB
:105C880074FF2FF001D80AD00500FA6E2E50FD6E71
:105C98002F50FE6EFF6AFA505A0E12002D50D0ECAB
:105CA8004DF020EE1CF02950D9262A50DA22600047
:105CB80007F0DEFF60000BF0DDFF20EE1CF029503E
:105CC800D9262A50DA22DE50DE10D8B42ED020EEA3
:105CD80010F02950D9262A50DA226000B7F0DFFFE9
:105CE80029C018F02AC019F02BC01AF02CC01BF0DC
:105CF80020EE1CF02950D9262A50DA2210EE01F0A5
:105D0800DE50E126DD50E2226F0098FF2EF06F0092
:105D180094FF2FF001D886D00500FA6E2E50FD6E44
:105D28002F50FE6EFF6AFA50120020EE1AF02CD0A7
:105D380029C018F02AC019F02BC01AF02CC01BF08B
:105D480020EE1CF02950D9262A50DA2210EE03F052
:105D5800DE50E126DD50E2226F0098FF2EF06F0042
:105D680094FF2FF001D809D00500FA6E2E50FD6E71
:105D78002F50FE6EFF6AFA501200306E020E301875
:105D8800D8A450D020EE1BF02950D9262A50DA2268
:105D9800010EDF6E47D020EE1BF02950D9262A507D
:105DA800DA22DF50D8B43ED020EE1CF02950D92694
:105DB8002A50DA226F0078FF33F06F0074FF34F056
:105DC80033503410D8B42ED020EE05F03350D926F5
:105DD8003450DA22DE50DE10D8A405D0100E316E11
:105DE800A90E326E0CD020EE05F03350D92634506F
:105DF800DA226F0078FF31F06F0074FF32F029C0AB
:105E080025F02AC026F02BC027F02CC028F001D896
:105E180009D00500FA6E3150FD6E3250FE6EFF6AF1
:105E2800FA50120020EE12F02950D9262A50DA2210
:105E38006F0078FF2EF06F0074FF2FF00F0E2E16F4
:105E4800000E2F162E502924D96E2F502A20DA6ED4
:105E58006000B7F0DFFF20EE12F02950D9262A5053
:105E6800DA22DE2A000EDD2220EE14F02950D9268F
:105E78002A50DA22DE2A000EDD2220EE16F0295002
:105E8800D9262A50DA22DE2A000EDD221200000E60
:105E9800756F000E746F20EE01F07851D926795194
:105EA800DA226F0078FF76F06F0074FF77F0C3ECAA
:105EB80052F0000E0001676F000E666F000E696FEA
:105EC800050E686F6FEC4FF0020E66256F6F000EBF
:105ED8006721706F20EE04F07851D9267951DA22C3
:105EE800DF50716F03EC4EF0000E00017E6F000E64
:105EF800676F050E666F000E696F050E686F6FECB1
:105F08004FF07E516627000E6723020E66256F6FDD
:105F1800000E6721706F7E51050D78C07AF079C048
:105F28007BF0F3507A27F4507B23090E7A25D96E3B
:105F3800000E7B21DA6EDF50716F03EC4EF000012A
:105F48007E2B0F0E7E65D3D7000E676F550E666FDA
:105F5800000E696F050E686F6FEC4FF0020E662534
:105F68006F6F000E6721706F20EE59F07851D926B7
:105F78007951DA22DF50716F03EC4EF0000E000108
:105F88007D6F000E7C6F000E676F5A0E666F000EF5
:105F9800696F050E686F6FEC4FF07C5166277D5175
:105FA8006723020E66256F6F000E6721706F7CC035
:105FB80066F07DC067F0000E696F050E686F85ECAE
:105FC80052F078C07AF079C07BF066517A27675131
:105FD8007B235E0E7A25D96E000E7B21DA6EDF50A8
:105FE800716F03EC4EF000017C4B7D2B7D5104E179
:105FF8000C0E7C5DD8A0C7D7000E676F960E666F33
:10600800000E696F050E686F6FEC4FF0020E662583
:106018006F6F000E6721706F20EE9AF07851D926C5
:106028007951DA22DF50716F03EC4EF0000E000157
:10603800676F9B0E666F000E696F050E686F6FECD9
:106048004FF0020E66256F6F000E6721706F20EE0D
:106058009FF07851D9267951DA22DF50716F03EC1D
:106068004EF0000E0001676FA00E666F000E696F9C
:10607800050E686F6FEC4FF0020E66256F6F000E0D
:106088006721706F20EEA4F07851D9267951DA2271
:10609800DF50716F03EC4EF0000E0001676FA50E24
:1060A800666F000E696F050E686F6FEC4FF0020E99
:1060B80066256F6F000E6721706F20EEA9F078518A
:1060C800D9267951DA22DF50716F03EC4EF0000EB9
:1060D8000001676FAA0E666F000E696F050E686F84
:1060E8006FEC4FF0020E66256F6F000E6721706F20
:1060F80020EEAEF07851D9267951DA22DF50716F4F
:1061080003EC4EF0000E0001676FAF0E666F000ED5
:10611800696F050E686F6FEC4FF0020E66256F6FA2
:10612800000E6721706F20EEB3F07851D9267951AF
:10613800DA22DF50716F03EC4EF01200000E0E6E83
:10614800000E0D6E20EE01F01150D9261250DA2201
:106158006F0078FF0FF06F0074FF10F012EC53F02F
:10616800000E026E000E016E000E046E050E036E28
:1061780098EC4FF0020E0124086E000E0220096E02
:1061880020EE04F01150D9261250DA22DF500A6EA0
:1061980044EC4FF0000E176E000E026E050E016EF5
:1061A800000E046E050E036E98EC4FF01750012692
:1061B800000E0222020E0124086E000E0220096E53
:1061C8001750050D11C013F012C014F0F350132628
:1061D800F4501422090E1324D96E000E1420DA6E1E
:1061E800DF500A6E44EC4FF0172A0F0E1764D4D70D
:1061F800000E026E550E016E000E046E050E036E43
:1062080098EC4FF0020E0124086E000E0220096E71
:1062180020EE59F01150D9261250DA22DF500A6EBA
:1062280044EC4FF0000E166E000E156E000E026E56
:106238005A0E016E000E046E050E036E98EC4FF0B8
:106248001550012616500222020E0124086E000E77
:106258000220096E15C001F016C002F0000E046E8F
:10626800050E036E9AEC52F011C013F012C014F030
:1062780001501326025014225E0E1324D96E000E0C
:106288001420DA6EDF500A6E44EC4FF0154A162AD5
:10629800165004E10C0E155CD8A0C8D7000E026E8B
:1062A800960E016E000E046E050E036E98EC4FF00C
:1062B800020E0124086E000E0220096E20EE9AF0EC
:1062C8001150D9261250DA22DF500A6E44EC4FF0F2
:1062D800000E026E9B0E016E000E046E050E036E1C
:1062E80098EC4FF0020E0124086E000E0220096E91
:1062F80020EE9FF01150D9261250DA22DF500A6E94
:1063080044EC4FF0000E026EA00E016E000E046EFB
:10631800050E036E98EC4FF0020E0124086E000E75
:106328000220096E20EEA4F01150D9261250DA226C
:10633800DF500A6E44EC4FF0000E026EA50E016E9F
:10634800000E046E050E036E98EC4FF0020E012449
:10635800086E000E0220096E20EEA9F01150D92611
:106368001250DA22DF500A6E44EC4FF0000E026E33
:10637800AA0E016E000E046E050E036E98EC4FF027
:10638800020E0124086E000E0220096E20EEAEF007
:106398001150D9261250DA22DF500A6E44EC4FF021
:1063A800000E026EAF0E016E000E046E050E036E37
:1063B80098EC4FF0020E0124086E000E0220096EC0
:1063C80020EEB3F01150D9261250DA22DF500A6EAF
:1063D80044EC4FF012007751800B846F775177258A
:1063E8008B6F76BF8B818B51D8B40DD08B29D8A4F5
:1063F80008D0000E746F000E756F000E766F000ED9
:10640800776F768F06D0000E746F000E756F000ED2
:10641800766F000E776F7B51800B841B7B517B2539
:106428008C6F7ABF8C818C51D8B40DD08C29D8A4AC
:1064380008D0000E786F000E796F000E7A6F000E8C
:106448007B6F7A8F06D0000E786F000E796F000E82
:106458007A6F000E7B6F785179117A117B11D8A46D
:1064680017D0000E746F000E756F000E766F000E59
:10647800776F800E76137F0E77138451771374C06D
:1064880074F075C075F076C076F077C077F01200BA
:106498008B51D8A409D0000E746F000E756F000ED2
:1064A800766F000E776F12008C518BC07CF07D6B7D
:1064B8007C5F000E7D5B7F0E7C25856F000E7D2145
:1064C800866F74C080F075C081F076C082F077C0A6
:1064D80083F0000E746F000E756F000E766F000E5D
:1064E800776F000E876F000E886F000E896F000EA1
:1064F8008A6F000E8C6F28D08C51D8B411D0D890E8
:106508008037813782378337D89074377537763735
:1065180077378ABF7481D8908737883789378A3721
:106528007851805D795181597A5182597B518359CB
:10653800D8A009D08A8D7851805F7951815B7A51D2
:10654800825B7B51835B8C2B190E8C65D5D7805170
:10655800811182118311D8B411D087810FD0D890BE
:1065680074377537763777378ABF7481D89087370D
:10657800883789378A378507D8A0860776AFEFD757
:10658800000E8C6F8AAF17D0FF0E87157C6FFF0E39
:1065980088157D6FFF0E89157E6F7F0E8A157F6FB8
:1065A8007C517D117E117F11D8B403D0010E8C6F00
:1065B80002D074B1FBD78C51D8B41FD0010E742708
:1065C800000E75237623772377A117D074C07CF04B
:1065D80075C07DF076C07EF077C07FF07F357F3361
:1065E8007E337D337C337CC074F07DC075F07EC013
:1065F80076F07FC077F0854B862B86BF10D086510A
:1066080003E18529D8A00BD0000E866F8569000E9E
:10661800746F000E756F000E766F000E776F86BF71
:1066280005D0865111E18505D8B00ED0000E866FD1
:10663800000E856F000E746F000E756F000E766F7A
:10664800000E776F000E846F85C08BF08BA102D08F
:10665800768F01D0769FD8908B31776F0ED7F3D095
:106668006000B3F1F6FF6000B7F1F7FFF86A0800C1
:106678006F00D4FF6FF0010E706F6F2B02D0D890AF
:1066880070376F2FFCD7050E00016C25716F000E57
:106698006D21726F6000C7F1F6FF6000CBF1F7FF64
:1066A800F86A09006F00D7FFD9FF09006F00D7FF0C
:1066B800DAFF7051DF126000B3F1F6FF6000B7F146
:1066C800F7FFF86A08006F00D4FF6FF0010E706FD3
:1066D8006F2B02D0D89070376F2FFCD798D06000FE
:1066E800B3F1F6FF6000B7F1F7FFF86A08006F0032
:1066F800D4FF6FF0010E706F6F2B02D0D8907037F7
:106708006F2FFCD7050E00016C25716F000E6D21EF
:10671800726F6000C7F1F6FF6000CBF1F7FFF86A0F
:1067280009006F00D7FFD9FF09006F00D7FFDAFF14
:106738007051DF126000B3F1F6FF6000B7F1F7FFA8
:10674800F86A08006F00D4FF6FF0010E706F6F2BAE
:1067580002D0D89070376F2FFCD7070E00016C2538
:10676800716F000E6D21726F6000C7F1F6FF600057
:10677800CBF1F7FFF86A09006F00D7FFD9FF0900CE
:106788006F00D7FFDAFF7051DF126ED06000B3F1EF
:10679800F6FF6000B7F1F7FFF86A08006F00D4FF52
:1067A8006FF0010E706F6F2B02D0D89070376F2F7B
:1067B800FCD700017051FF0A716F050E6C25726FCE
:1067C800000E6D21736F6000CBF1F6FF6000CFF112
:1067D800F7FFF86A09006F00D7FFD9FF09006F00BB
:1067E800D7FFDAFF7151DF166000B3F1F6FF6000E2
:1067F800B7F1F7FFF86A08006F00D4FF6FF0010ED9
:10680800706F6F2B02D0D89070376F2FFCD70001B4
:106818007051FF0A716F070E6C25726F000E6D21A3
:10682800736F6000CBF1F6FF6000CFF1F7FFF86AF5
:1068380009006F00D7FFD9FF09006F00D7FFDAFF03
:106848007151DF1611D06E516F6F706B7051000A65
:10685800D8A40AD06F51000AD8B402D7010AD8B414
:106868003ED7030AD8B492D76000B3F1F6FF6000B0
:10687800B7F1F7FFF86A08006F00D4FF6FF0010E58
:10688800706F6F2B02D0D89070376F2FFCD7000134
:106898007051FF0A716F090E6C25726F000E6D2121
:1068A800736F6000CBF1F6FF6000CFF1F7FFF86A75
:1068B80009006F00D7FFD9FF09006F00D7FFDAFF83
:1068C8007151DF16120020EE14F01850D926195015
:1068D800DA22DE50DE10D8A40DD020EE11F01850C8
:1068E800D9261950DA22DF501C6E1C500301006FA4
:1068F800016BACD020EE14F01850D9261950DA22CA
:10690800DE04DE10D8A43DD020EE11F01850D926B0
:106918001950DA22DF501C6E1C501E6E1D6A1D5065
:10692800030100131E500113015129E1240E005DDB
:10693800D8B025D0000E026F00C301F001C302F0E9
:10694800000E046E050E036E9AEC52F01AC01CF08D
:106958001BC01DF001501C2602501D22E00E1C24F5
:106968000301036F000E1D20046F03C301F004C36D
:1069780002F089EC47F001500301856F67D0026986
:1069880065D0030103510411D8B460D020EE11F092
:106998001850D9261950DA2210EE14F01850E126B2
:1069A8001950E2226F0098FF1CF06F0094FF1DF051
:1069B800030E1C24E16E030E1D20E26E6F007FFFA4
:1069C800E7FF20EE14F01850D9261950DA22030EEA
:1069D800DE18DE10D8A415D020EE11F01850D926F4
:1069E8001950DA2260000FFCE1FF600013FCE2FF9F
:1069F800DE50E618D8B405D0000E036F000E046F01
:106A0800026920EE14F01850D9261950DA22040E23
:106A1800DE18DE10D8A41AD060000FFCD9FF600081
:106A280013FCDAFF050EDE18D8A410D020EE11F002
:106A38001850D9261950DA2210EE01F00351E12638
:106A48000451E2226F007FFFE7FF8FD720EE16F098
:106A58001850D9261950DA22010EDBBE07D0010ED4
:106A6800DB501CE1020EDE5CD8B018D020EE18F026
:106A78001850D9261950DA226F0078FF1CF06F00E1
:106A880074FF1DF001D822D00500FA6E1C50FD6E6F
:106A98001D50FE6EFF6AFA50000E120020EE18F02C
:106AA8001850D9261950DA226F0078FF1CF06F00B1
:106AB80074FF1DF001D80AD00500FA6E1C50FD6E57
:106AC8001D50FE6EFF6AFA500251120003018551F3
:106AD8001C6E1D6A020E1C26000E1D2220EE16F0EA
:106AE8001850D9261950DA226F0078FF1EF06F006F
:106AF80074FF1FF0010E1E26000E1F221C501E18C8
:106B080004E11D501F18D8B402D0010E1200020E65
:106B1800120060000FF0D9FF600013F0DAFF600088
:106B280007F0E1FF60000BF0E2FF6F007FFFE7FF77
:106B3800E8D020EE01F00150D9260250DA2210EEFA
:106B480001F00350E1260450E222E750D8B402D005
:106B5800010E01D0000EDF6E120020EE01F003508E
:106B6800D9260450DA2210EE01F00150E126025035
:106B7800E2226F007FFFE7FF120020EE02F00350D1
:106B8800D9260450DA22DF50056E0550076E066AD2
:106B980020EE01F00350D9260450DA22DF50086EA7
:106BA800096A065008120750091220EE01F0015038
:106BB800D9260250DA22600023F0DEFF600027F0B9
:106BC800DDFF120020EE04F00350D9260450DA222B
:106BD800DF50056E05C006F0076A086A096A06C034
:106BE80009F0086A076A066A20EE03F00350D926FE
:106BF8000450DA22DF500A6E0AC00BF00C6A0D6AE4
:106C08000E6A0CC00EF00BC00DF00C6A0B6A20EE79
:106C180002F00350D9260450DA22DF500F6E0FC05D
:106C280010F0116A126A136A12C013F011C012F040
:106C380010C011F0106A20EE01F00350D92604505C
:106C4800DA22DF50146E14C015F0166A176A186A33
:106C580010501510196E115016101A6E1250171088
:106C68001B6E135018101C6E0B5019101D6E0C5013
:106C78001A101E6E0D501B101F6E0E501C10206E29
:106C880006501D10216E07501E10226E08501F104E
:106C9800236E09502010246E20EE01F00150D926F1
:106CA8000250DA22600087F0DEFF60008BF0DEFF22
:106CB80060008FF0DEFF600093F0DEFF120020EE30
:106CC80001F00350D9260450DA2210EE01F00150E9
:106CD800E1260250E2226F007FFFE7FF020E032445
:106CE800056E000E0420066E20EE02F00150D92633
:106CF8000250DA22600017F0DEFF60001BF0DDFFB3
:106D08001200600007F0D9FF60000BF0DAFFDF50D7
:106D1800056E066A0650000AD8A412000550010A3A
:106D2800D8B407D7030AD8B418D7010AD8B425D7D6
:106D3800070AD8B447D7010AD8B4C1D7FA0A12004B
:106D4800F7AFF893F7BF05D0F75108E1F605D8B0CB
:106D580005D0000E986F010E976F04D0F6C097F01B
:106D6800F7C098F0F4C099F0F5C09AF0F8A904D0EB
:106D7800FE0E9927FF0E9A2386C09BF087C09CF0D1
:106D880088C09DF089C09EF08AC09FF08BC0A0F09B
:106D98008CC0A1F08DC0A2F0000EA46F1F0EA36FCF
:106DA800000E0101D46F82D0A307D8A0A4070F0E4C
:106DB8009B15A56FA66BA6BF08D0A65104E10A0EC5
:106DC800A55DD8A002D0570E01D0300EA525A56F1D
:106DD800000EA621A66FBF0E8F6FFF0E906F8E510B
:106DE800916F926B8F51912790519223925122E18A
:106DF8001A0E915DD8B01ED09F0E8F6FFF0E906F48
:106E0800200EA511916F000EA611926F8F51912738
:106E18009051922392510EE11A0E915DD8B00AD08A
:106E2800A5C06CF0A6C06DF076EC51F06CC0A5F072
:106E38006DC0A6F0B50EA325D96E010EA421DA6E99
:106E4800600097F2DFFF9707D8A098079907D8A0A6
:106E58009A079BC08FF09CC090F09DC091F09EC097
:106E680092F09FC093F0A0C094F0A1C095F0A2C08A
:106E780096F0050E09D0D890963395339433933312
:106E88009233913390338F33E82EF5D78FC09BF030
:106E980090C09CF091C09DF092C09EF093C09FF06E
:106EA80094C0A0F095C0A1F096C0A2F00001A4BFC4
:106EB80020D0A45104E1020EA35DD8A01AD09B51A2
:106EC8009C119D119E119F11A011A111A211D8A46E
:106ED8006BD798BF05D0985102E19705D8B064D711
:106EE8009ABF07D09A5103E19905D8A002D0F8B308
:106EF8005BD7F8A917D0A307D8A0A407B50EA32578
:106F0800D96E010EA421DA6E60003BF2DFFFA30701
:106F1800D8A0A407B50EA325D96E010EA421DA6E58
:106F2800300EDF6E84C079F085C07AF0B50EA325E7
:106F38007B6F010EA4217C6F99C07DF09AC07EF012
:106F4800B3EC4AF079C084F07AC085F01200600092
:106F5800BFF1D9FF6000C3F1DAFF010EDF6E20EE4A
:106F680001F06F51D9267051DA22010EDE6E000E43
:106F7800DD6E030E6F25666F000E7021676F000EC1
:106F8800686F49EC53F0000E796F7951050D6FC0A9
:106F980071F070C072F0F3507127F4507223080E2C
:106FA80071256C6F000E72216D6F79C06EF037EC31
:106FB80053F0792B0F0E7965E8D7580E6F25666F59
:106FC800000E7021676F000E686F49EC53F0000ED9
:106FD8007B6F000E7A6F7AC066F07BC067F0000E98
:106FE800696F030E686F80EC50F066516711D8B472
:106FF80033D07AC066F07BC067F0000E696F030E6D
:10700800686F80EC50F066056711D8B41CD07AC060
:1070180066F07BC067F0000E696F030E686F80EC46
:1070280050F0020E66196711D8B405D0000E786FBB
:10703800000E776F03D0000E786F776977C075F010
:1070480078C076F004D0000E766F7F0E756F75C02D
:1070580073F076C074F004D0000E746F000E736F76
:107068007AC066F07BC067F0000E696F050E686F26
:1070780085EC52F06FC071F070C072F066517127E4
:10708800675172235D0E71256C6F000E72216D6F52
:1070980073C06EF037EC53F07A4B7B2B7B5104E1D5
:1070A8000C0E7A5DD8A097D7990E6F256C6F000EDD
:1070B80070216D6F000E6E6F37EC53F09E0E6F25CA
:1070C8006C6F000E70216D6F000E6E6F37EC53F011
:1070D800A30E6F25666F000E7021676F000E686F34
:1070E80049EC53F0A80E6F25666F000E7021676F8C
:1070F800000E686F49EC53F0AD0E6F256C6F000EF3
:1071080070216D6F400E6E6F37EC53F0B20E6F2525
:107118006C6F000E70216D6F400E6E6F37EC53F080
:10712800120060002BF0D9FF60002FF0DAFF010E8B
:10713800DF6E20EE01F00A50D9260B50DA22010E3C
:10714800DE6E000EDD6E030E0A24016E000E0B20AB
:10715800026E000E036E6DEC53F0000E146E1450A8
:10716800050D0AC00CF00BC00DF0F3500C26F450BE
:107178000D22080E0C24076E000E0D20086E14C098
:1071880009F05BEC53F0142A0F0E1464E8D7580E7C
:107198000A24016E000E0B20026E000E036E6DECC9
:1071A80053F0000E166E000E156E15C001F016C0D5
:1071B80002F0000E046E030E036EA1EC50F00150B5
:1071C8000210D8B433D015C001F016C002F0000E7A
:1071D800046E030E036EA1EC50F001040210D8B443
:1071E8001CD015C001F016C002F0000E046E030E8C
:1071F800036EA1EC50F0020E01180210D8B405D0AD
:10720800000E136E000E126E03D0000E136E12687D
:1072180012C010F013C011F004D0000E116E7F0ED2
:10722800106E10C00EF011C00FF004D0000E0F6EDB
:10723800000E0E6E15C001F016C002F0000E046EAE
:10724800050E036E9AEC52F00AC00CF00BC00DF05C
:1072580001500C2602500D225D0E0C24076E000E04
:107268000D20086E0EC009F05BEC53F0154A162A83
:10727800165004E10C0E155CD8A097D7990E0A2475
:10728800076E000E0B20086E000E096E5BEC53F0C3
:107298009E0E0A24076E000E0B20086E000E096E63
:1072A8005BEC53F0A30E0A24016E000E0B20026E55
:1072B800000E036E6DEC53F0A80E0A24016E000E4A
:1072C8000B20026E000E036E6DEC53F0AD0E0A2417
:1072D800076E000E0B20086E400E096E5BEC53F033
:1072E800B20E0A24076E000E0B20086E400E096EBF
:1072F8005BEC53F0120020EE14F01850D926195008
:10730800DA22DE50DE10D8A40DD020EE11F018508D
:10731800D9261950DA22DF501C6E1C500201006F6A
:10732800016B50D020EE14F01850D9261950DA22EB
:10733800DE04DE10D8A446D020EE11F01850D9266D
:107348001950DA22DF501C6E1C501E6E1D6A1D502B
:10735800020100131E50011301511DE1240E005DAE
:10736800D8B019D000C201F001C202F0000E046EBC
:10737800050E036E9AEC52F01AC01CF01BC01DF0EB
:1073880001501C2602501D22E00E1C240201026F2F
:10739800000E1D2003D0470E026F430E036F02C27A
:1073A80001F003C202F089EC47F001500201846F3A
:1073B80002C20CF003C20DF0040E0E6E020E0F6E28
:1073C8006BEC26F020EE16F01850D9261950DA2268
:1073D800010EDBBE07D0010EDB501CE1020EDE5CA5
:1073E800D8B018D020EE18F01850D9261950DA2243
:1073F8006F0078FF1CF06F0074FF1DF001D834D0C7
:107408000500FA6E1C50FD6E1D50FE6EFF6AFA50A4
:10741800000E120020EE18F01850D9261950DA2262
:107428006F0078FF1CF06F0074FF1DF001D81CD0AE
:107438000500FA6E1C50FD6E1D50FE6EFF6AFA5074
:1074480020EE16F01850D9261950DA226F0078FF6E
:107458001EF06F0074FF1FF0020E1E24D96E020E7C
:107468001F20DA6EDF501200020184511C6E1D6A63
:10747800020E1C26000E1D2220EE16F01850D926EA
:107488001950DA226F0078FF1EF06F0074FF1FF0AA
:10749800010E1E26000E1F221C501E1804E11D504E
:1074A8001F18D8B402D0010E1200020E120020EEEE
:1074B80018F01850D9261950DA226F0078FF1CF0FE
:1074C8006F0074FF1DF001D832D00500FA6E1C5011
:1074D800FD6E1D50FE6EFF6AFA5020EE16F0185031
:1074E800D9261950DA226F0078FF1EF06F0074FF5A
:1074F8001FF050C020F051C021F01E5020261F5010
:107508002122600083F0F6FF600087F0F7FF000E8D
:10751800F86E0F0EF76403D00800F55007D06F001F
:10752800DBFFE9FF6F00DFFFEAFFEF50120020EEFC
:1075380010F01850D9261950DA22420EDE18D8A4B5
:1075480050D020EE14F01850D9261950DA22DE5007
:10755800DE10D8A423D020EED9F01A50D9261B501B
:10756800DA22DF50D8A41AD020EE11F01850D9260C
:107578001950DA22DE28D8B405D0000E236E000E8A
:10758800226E03D0000E236E226820EEDAF01A5025
:10759800D9261B50DA2260008BF0DFFF20EE14F0B2
:1075A8001850D9261950DA22DE04DE10D8A440D0AB
:1075B80020EEDBF01A50D9261B50DA22DE04D8A4BC
:1075C80037D020EE11F01850D9261950DA2210EED3
:1075D800DCF01A50E1261B50E2226F007FFFE7FF24
:1075E80027D020EE10F01850D9261950DA22430E71
:1075F800DE18D8A41DD020EE14F01850D926195042
:10760800DA22DE50DE10D8A413D020EED8F01A50BB
:10761800D9261B50DA2210EE11F01850E126195025
:10762800E222E604D8A402D0010E01D0000EDF6EDB
:1076380020EE16F01850D9261950DA226F0078FF7C
:107648001CF06F0074FF1DF0010E1C26000E1D2299
:1076580052501C1804E153501D18D8B402D0010E22
:107668001200020E1200F7AFF893F7BF05D0F751DA
:1076780008E1F605D8B005D0000E976F010E966F99
:1076880004D0F6C096F0F7C097F0F4C098F0F5C0B3
:1076980099F086C09AF087C09BF088C09CF089C09A
:1076A8009DF08AC09EF08BC09FF08CC0A0F08DC06A
:1076B800A1F0000EA36F1F0EA26F000E0101D46F80
:1076C80076D0A207D8A0A307B50EA225D96E010EC1
:1076D800A321DA6E9AC066F09BC067F09CC068F080
:1076E8009DC069F09EC06AF09FC06BF0A0C06CF0AE
:1076F800A1C06DF00A0E6E6F000E6F6F000E706FF6
:10770800000E716F000E726F000E736F000E746FB3
:10771800000E756FBAEC49F066C08EF067C08FF046
:1077280068C090F069C091F06AC092F06BC093F0A5
:107738006CC094F06DC095F08E51300FDF6E9607D7
:10774800D8A097079807D8A099079AC066F09BC059
:1077580067F09CC068F09DC069F09EC06AF09FC049
:107768006BF0A0C06CF0A1C06DF00A0E6E6F000E39
:107778006F6F000E706F000E716F000E726F000E4B
:10778800736F000E746F000E756FBCEC46F066C028
:107798009AF067C09BF068C09CF069C09DF06AC011
:1077A8009EF06BC09FF06CC0A0F06DC0A1F000010E
:1077B800A251A311D8B41AD09A519B119C119D11B2
:1077C8009E119F11A011A111D8A47BD797BF05D0F6
:1077D800975102E19605D8B074D799BF07D099514F
:1077E80003E19805D8A002D0F8B36BD784C079F02C
:1077F80085C07AF0B50EA2257B6F010EA3217C6FA0
:1078080098C07DF099C07EF0B3EC4AF079C084F05E
:107818007AC085F01200000E0001776F000E766FB7
:1078280076C066F077C067F0000E696F0E0E686F5D
:1078380085EC52F0810E66256C6F410E67216D6FE5
:10784800010E6E6F33EC33F0764B772B77BFE8D7AA
:10785800775104E1100E765DD8A0E2D71F0E6C6F49
:10786800430E6D6F020E6E6F33EC33F0110E6C6FBA
:10787800430E6D6F020E6E6F33EC33F0030E6C6FB8
:10788800430E6D6F020E6E6F33EC33F03F0E3E0108
:10789800FF6F000EFD6FF885F88F000E0001796FFD
:1078A800000E786F78C066F079C067F0000E696FD7
:1078B800060E686F85EC52F0F30E6625F66E400EE4
:1078C8006721F76EF86A000EF82208006F00D4FFEF
:1078D80074F0010E756F742B02D0D8907537742F21
:1078E800FCD778C066F079C067F0000E0001696FB8
:1078F800060E686F85EC52F0030E6627000E6723AC
:10790800F30E6625F66E400E6721F76EF86A000ED4
:10791800F82209006F00D7FFD9FF09006F00D7FFD1
:10792800DAFF7551DF1278C066F079C067F0000E93
:10793800696F060E686F85EC52F0F30E6625F66ED9
:10794800400E6721F76EF86A000EF82208006F00F3
:10795800D4FF74F0010E756F742B02D0D890753770
:10796800742FFCD778C066F079C067F0000E00016C
:10797800696F060E686F85EC52F0010E6627000EDF
:107988006723F30E6625F66E400E6721F76EF86AD8
:10799800000EF82209006F00D7FFD9FF09006F0019
:1079A800D7FFDAFF7551DF12784B792B79BF7AD779
:1079B800795105E1040E785DD8B0120073D7120032
:1079C80020EE16F01850D9261950DA22DE50DE10B3
:1079D800D8A418D020EE18F01850D9261950DA2259
:1079E8006F0078FF1CF06F0074FF1DF001D898D06D
:1079F8000500FA6E1C50FD6E1D50FE6EFF6AFA50AF
:107A0800000E120020EE14F01850D9261950DA2270
:107A1800DE50DE10D8A45AD020EE11F01850D92626
:107A28001950DA22DF500401006F3FD01AC00CF061
:107A38001BC00DF0010E0E6E040E0F6E6BEC26F0DF
:107A48001AC001F01BC002F089EC47F029D0050EDE
:107A58001A240C6E000E1B200D6E010E0E6E040E05
:107A68000F6E6BEC26F0050E1A24016E000E1B201B
:107A7800026E89EC47F014D00A0E1A240C6E000E20
:107A88001B200D6E010E0E6E040E0F6E6BEC26F0B1
:107A98000A0E1A24016E000E1B20026E89EC47F0B4
:107AA80001C081F402C082F411D000511C6E1D6A1D
:107AB8001D50000AD8A40AD01C50000AD8B4B6D762
:107AC800010AD8B4C4D7030AD8B4D6D720EE18F020
:107AD8001850D9261950DA226F0078FF1CF06F0071
:107AE80074FF1DF001D81CD00500FA6E1C50FD6E05
:107AF8001D50FE6EFF6AFA5020EE16F01850D92677
:107B08001950DA226F0078FF1EF06F0074FF1FF023
:107B1800000E1E24D96E040E1F20DA6EDF501200EC
:107B280020EE16F01850D9261950DA226F0078FF87
:107B38001CF06F0074FF1DF0010E1C26000E1D22A4
:107B4800010E040181251E6E000E82211F6E1C503D
:107B58001E1804E11D501F18D8B402D0010E1200DF
:107B6800020E120020EE16F01850D9261950DA220B
:107B7800DE50DE10D8A419D020EE18F01850D926FF
:107B88001950DA226F0078FF1CF06F0074FF1DF0A7
:107B980001D84BD00500FA6E1C50FD6E1D50FE6ECC
:107BA800FF6AFA5020EED9F022D020EE16F01850D5
:107BB800D9261950DA22DE04DE10D8A41ED020EE11
:107BC80018F01850D9261950DA226F0078FF1CF0E7
:107BD8006F0074FF1DF001D828D00500FA6E1C5004
:107BE800FD6E1D50FE6EFF6AFA5020EEDBF01A5053
:107BF800D9261B50DA22DF50120020EE18F0185058
:107C0800D9261950DA226F0078FF1CF06F0074FF34
:107C18001DF001D80AD00500FA6E1C50FD6E1D50EB
:107C2800FE6EFF6AFA50FF0E120020EE14F0185094
:107C3800D9261950DA22DE50DE10D8A409D020EE59
:107C480011F01850D9261950DA2210EED9F012D0B6
:107C580020EE14F01850D9261950DA22DE04DE106E
:107C6800D8A40FD020EE11F01850D9261950DA22D6
:107C780010EEDBF01A50E1261B50E2226F007FFF66
:107C8800E7FF20EE16F01850D9261950DA226F00B7
:107C980078FF1CF06F0074FF1DF0010E1C26000E0B
:107CA8001D22060E1C181D10D8B402D0010E120099
:107CB800020E120020EE35F010EE75F0060E6F0081
:107CC8006FFFE3FFE806FBE272C080F073C081F04B
:107CD80080518111D8A403D0750E806F816B80C04C
:107CE80066F081C067F0E9EC4FF066C084F067C0C9
:107CF80085F0F6C082F0F7C083F083BF0ED08451C0
:107D0800825D8351800A746F8551800A7459D8B096
:107D180004D082C084F083C085F084C082F085C01E
:107D280083F0F4C07EF0F5C07FF0F8A10DD016D036
:107D3800000E686F200E676F70C069F071C06AF03E
:107D48004EEC4CF0844B852B7E51845D8551800A26
:107D5800746F7F51800A7459D8A0EAD7000E7D6FDE
:107D6800000E7C6F24D0600003F2F6FF600007F27B
:107D7800F7FF000EF86E0F0EF76403D00800F550F9
:107D880007D06F00DBFFE1FF6F00DFFFE2FFE75086
:107D98000001746F7451676F686B70C069F071C0CF
:107DA8006AF04EEC4CF0804B812B7C4B7D2B825142
:107DB8007C5D7D51800A746F8351800A7459D8A004
:107DC800D2D7F8B10DD016D0000E686F200E676FAD
:107DD80070C069F071C06AF04EEC4CF0844B852B92
:107DE8007E51845D8551800A746F7F51800A745971
:107DF800D8A0EAD784C070F085C071F012006E6F09
:107E080000016E51D8A469AF1AD066C06AF067C085
:107E18006BF068C06CF069C06DF06A1F6B1F6C1F57
:107E28006D1F6A2B000E6B236C236D236AC070F0E4
:107E38006BC071F06CC072F06DC073F008D066C092
:107E480070F067C071F068C072F069C073F0665175
:107E5800671168116911D8A409D0000E666F000E69
:107E6800676F000E686F000E696F1200960E6F6FD5
:107E780006D06F2BD8907333723371337033000E82
:107E880070156A6F000E71156B6F000E72156C6FAE
:107E9800FE0E73156D6F6A516B116C116D11D8B4AC
:107EA8000DD0E7D76F2B010E7027000E71237223B8
:107EB8007323D8907333723371337033000E701597
:107EC8006A6F000E71156B6F000E72156C6FFF0EE6
:107ED80073156D6F6A516B116C116D11D8B407D0A1
:107EE800E1D76F07D890703771377237733772BF21
:107EF80003D0020E6F61F5D76FA1729FD8906F33D0
:107F08006FC06AF06B6B6C6B6D6B6AC06DF06C6BFD
:107F18006B6B6A6B6A5170136B5171136C517213EE
:107F28006D5173136E51D8A469AF01D0738F70C0AF
:107F380066F071C067F072C068F073C069F0120033
:107F4800000E766F000E756F000E746F000E736F63
:107F580002D06D4B6E2B6000B7F1F6FF6000BBF1ED
:107F6800F7FFF86A0800F550200AD8B4F2D7F70EE0
:107F78006F6FFF0E706F6000B7F1F6FF6000BBF126
:107F8800F7FFF86A0800F550716F726B6F5171272F
:107F98007051722372510CE1050E715DD8B008D092
:107FA800D8D7000E746F010E736F6D4B6E2B34D0E3
:107FB8006000B7F1F6FF6000BBF1F7FFF86A080050
:107FC800F5506F6F706B7051000AD8A425D06F51AF
:107FD8002B0AD8B4EAD7060AD8B4E3D71DD075C09F
:107FE80066F076C067F0000E696F0A0E686F85EC60
:107FF80052F06000B7F1F6FF6000BBF1F7FFF86AD6
:108008000800F550665F000E675B300E6625756FD9
:10801800000E6721766FC9D7D00E6F6FFF0E706F95
:108028006000B7F1F6FF6000BBF1F7FFF86A0800DF
:10803800F550716F726B6F517127705172237251C5
:1080480004E10A0E715DD8A0CAD773517411D8A47F
:108058000DD075C06FF076C070F06F1F701F6F4B3A
:10806800702B6FC06DF070C06EF0120075C06DF0AF
:1080780076C06EF01200000E966F000E956F85C0E8
:108088007AF086C07BF0D1EC4BF07AC08FF07BC0E1
:1080980090F020EEB4F08551D9268651DA2260009E
:1080A8003FF2DFFF954B962B95518525876F9651AB
:1080B8008621886FB40E8725D96E000E8821DA6E66
:1080C800600043F2DFFF954B962B000E926F000E77
:1080D800916F91518525876F92518621886FB00ED7
:1080E8008725D96E000E8821DA6E95518525896F0E
:1080F800965186218A6FB40E8925E16E000E8A2179
:10810800E26E6F007FFFE7FF954B962B914B922B0A
:1081180092BFDFD7925104E1040E915DD8A0D9D760
:10812800000E946F000E936F200E9325D96E010EEA
:108138009421DA6EDF508B6F8B510B0D6F00CCFFE3
:1081480087F06F00D0FF88F0875185256C6F8851C4
:1081580086216D6FEDEC47F08C6F8C51D8B405D04B
:10816800000E8E6F000E8D6F03D0000E8E6F8D691E
:1081780095518525876F96518621886FB40E87257E
:10818800D96E000E8821DA6E600037F2DFFF954B5A
:10819800962B934B942B945105E10C0E935DD8B01C
:1081A8001200C2D7120020EE16F01850D926195026
:1081B800DA22DE50DE10D8A418D020EE18F01850BD
:1081C800D9261950DA226F0078FF1CF06F0074FF6F
:1081D8001DF001D862D00500FA6E1C50FD6E1D50CE
:1081E800FE6EFF6AFA50000E120020EE18F01850CA
:1081F800D9261950DA226F0078FF1CF06F0074FF3F
:108208001DF001D82ED00500FA6E1C50FD6E1D50D1
:10821800FE6EFF6AFA50FF0E1E6EFF0E1F6E20EEF6
:1082280016F01850D9261950DA226F0078FF20F07E
:108238006F0074FF21F054C022F055C023F0205085
:108248002226215023221E5022261F50232260005E
:108258008BF0F6FF60008FF0F7FFF86A0800F55022
:10826800120020EE14F01850D9261950DA22DE50E8
:10827800DE10D8A412D020EE11F01850D9261950CB
:10828800DA22DF501C6E010E1C161C50050D2D0E37
:10829800F324546E430EF420556E20EE16F0185059
:1082A800D9261950DA226F0078FF1CF06F0074FF8E
:1082B8001DF0010E1C26000E1D22060E1C181D1096
:1082C800D8B402D0010E1200020E120020EE16F0F1
:1082D8001850D9261950DA22DE50DE10D8A418D04A
:1082E80020EE18F01850D9261950DA226F0078FFBE
:1082F8001CF06F0074FF1DF001D862D00500FA6E03
:108308001C50FD6E1D50FE6EFF6AFA50000E1200E2
:1083180020EE18F01850D9261950DA226F0078FF8D
:108328001CF06F0074FF1DF001D82ED00500FA6E06
:108338001C50FD6E1D50FE6EFF6AFA50FF0E1E6E39
:10834800FF0E1F6E20EE16F01850D9261950DA22AB
:108358006F0078FF20F06F0074FF21F056C022F004
:1083680057C023F020502226215023221E502226B7
:108378001F50232260008BF0F6FF60008FF0F7FF9C
:10838800F86A0800F550120020EE14F01850D926AB
:108398001950DA22DE50DE10D8A412D020EE11F0E7
:1083A8001850D9261950DA22DF501C6E010E1C16FF
:1083B8001C50050D370EF324566E430EF420576EED
:1083C80020EE16F01850D9261950DA226F0078FFDF
:1083D8001CF06F0074FF1DF0010E1C26000E1D22FC
:1083E800060E1C181D10D8B402D0010E1200020E81
:1083F800120020EE16F01850D9261950DA22020E73
:10840800DE18DE10D8A423D020EE18F01850D92694
:108418001950DA226F0078FF1CF06F0074FF1DF00E
:1084280001D843D00500FA6E1C50FD6E1D50FE6E3B
:10843800FF6AFA5020EED6F01A50D9261B50DA22DD
:10844800DF50D8B402D0010E1200000E120020EE48
:1084580018F01850D9261950DA226F0078FF1CF04E
:108468006F0074FF1DF001D820D00500FA6E1C5073
:10847800FD6E1D50FE6EFF6AFA5020EE16F0185081
:10848800D9261950DA226F0078FF1EF06F0074FFAA
:108498001FF00B0E1E24F66E410E1F20F76EF86AB1
:1084A800000EF8220800F550120020EE16F01850C1
:1084B800D9261950DA226F0078FF1CF06F0074FF7C
:1084C8001DF0010E1C26000E1D22060E1C181D1084
:1084D800D8B402D0010E1200020E1200000EF66F80
:1084E800F6C1F4F1000120EEE1F0E551D926E6519C
:1084F800DA22DF50D8B415D00101F651050DE5C0D8
:10850800E7F0E6C0E8F0F3500001E727F450E8236D
:10851800E60EE725D96E000EE821DA6EDF5001017C
:10852800F46F0101F451AFEC52F00009D8A402D065
:10853800010E01D0000E0101F36FF6510B0DE5C0DD
:10854800E7F0E6C0E8F0F3500001E727F450E8232D
:10855800100EE725666F000EE821676FF3C168F01B
:10856800FFEC52F00101F62B0F0EF665B9D7000E9D
:10857800F56FF5510001E525E76F000EE621E86F7C
:10858800C00EE725D96E000EE821DA6E0101F5511B
:1085980066EC4EF0DF6E0101F52B030EF565E9D7A9
:1085A800000120EEDDF0E551D926E651DA22DF5050
:1085B800D8B41200E5C0BCF0E6C0BDF066EC22F00D
:1085C800120074C066F075C067F076C068F077C0B6
:1085D80069F023EC47F066516711D8A409D078C038
:1085E80074F079C075F07AC076F07BC077F012002D
:1085F80078C066F079C067F07AC068F07BC069F02F
:1086080023EC47F066516711D8A409D074C074F000
:1086180075C075F076C076F077C077F0120074C038
:1086280066F075C067F076C068F077C069F038EC1E
:1086380050F066C07CF067C07DF078C066F079C005
:1086480067F07AC068F07BC069F038EC50F066518A
:108658007C1904E167517D19D8B40FD074C066F055
:1086680075C067F076C068F077C069F038EC50F0F4
:1086780066516711D8B4B3D7C9D774C066F075C04E
:1086880067F076C068F077C069F078C06AF079C0A2
:108698006BF07AC06CF07BC06DF0ECEC45F0D8B0B4
:1086A8009ED7B4D77EC066F07FC067F080C068F000
:1086B80081C069F023EC47F066516711D8A409D04E
:1086C80082C07EF083C07FF084C080F085C081F0D6
:1086D800120082C066F083C067F084C068F085C06D
:1086E80069F023EC47F066516711D8A409D07EC021
:1086F8007EF07FC07FF080C080F081C081F01200E2
:108708007EC066F07FC067F080C068F081C069F005
:1087180038EC50F066C086F067C087F082C066F01B
:1087280083C067F084C068F085C069F038EC50F009
:108738006651861904E167518719D8B40FD07EC0F5
:1087480066F07FC067F080C068F081C069F038ECDF
:1087580050F066516711D8B4CAD7B2D77EC066F058
:108768007FC067F080C068F081C069F082C06AF09D
:1087780083C06BF084C06CF085C06DF0ECEC45F004
:10878800D8B0B5D79DD720EE16F01850D926195075
:10879800DA22DE50DE10D8A418D020EE18F01850D7
:1087A800D9261950DA226F0078FF1CF06F0074FF89
:1087B8001DF001D840D00500FA6E1C50FD6E1D500A
:1087C800FE6EFF6AFA50000E120020EE18F01850E4
:1087D800D9261950DA226F0078FF1CF06F0074FF59
:1087E8001DF001D828D00500FA6E1C50FD6E1D50F2
:1087F800FE6EFF6AFA50FF0E1E6EFF0E1F6E20EE11
:1088080016F01850D9261950DA226F0078FF20F098
:108818006F0074FF21F01E5020261F5021223C0EAD
:108828002024F66E410E2120F76EF86A000EF82219
:108838000800F550120020EE16F01850D9261950ED
:10884800DA226F0078FF1CF06F0074FF1DF0010E34
:108858001C26000E1D22060E1C181D10D8B402D0AE
:10886800010E1200020E1200200EF66EA70EF76E11
:10887800000EF86E00EE85F210EE20F009006F0091
:10888800D7FFEEFFE550E150F9E10E0EF66E920EBD
:10889800F76E000EF86E00EE00F110EEB5F009006C
:1088A8006F00D7FFEEFFE550E150F9E11E0EF66EBE
:1088B800A80EF76E000EF86E00EE35F010EE17F009
:1088C80009006F00D7FFEEFFE550E150F9E101EE36
:1088D80080F110EE94F1EE6AE550E150FCE1E250CF
:1088E800FAE101EE00F1800EEE6AE806FDE101EE24
:1088F80000F0830EEE6AE806FDE100EE00F3860E56
:10890800EE6AE806FDE100EE00F2850EEE6AE80682
:10891800FDE100EEB5F13E0EEE6AE806FDE100EE7F
:10892800EAF0100EEE6AE806FDE100EE4CF00D0EDE
:10893800EE6AE806FDE1080ED56E400ED66E000E12
:10894800D76E000110EF4CF0080E3D01186F14812E
:1089580014851493159F1585159D158B16811683FF
:10896800F50E00016C6F420E6D6F000E6E6F33ECEA
:1089780033F0E70E6C6F420E6D6F000E6E6F33ECC6
:1089880033F0D90E6C6F420E6D6F020E6E6F33ECC2
:1089980033F0BD0E6C6F420E6D6F010E6E6F33ECCF
:1089A80033F0CB0E6C6F420E6D6F020E6E6F33ECB0
:1089B80033F0CB0E666F420E676F010E686F4CEC9A
:1089C80048F02FEC54F0F50E0001666F420E676F09
:1089D800DE0E686F3A0E696F2CEC52F0E70E666F88
:1089E800420E676FDF0E686F3A0E696F2CEC52F01B
:1089F800BD0E666F420E676FE00E686F3A0E696FC4
:108A08002CEC52F0D90E666F420E676F1F0E686F1E
:108A1800C8EC51F037EC54F03901828992893D0154
:108A28001785148F120020EE18F01850D926195007
:108A3800DA226F0078FF1CF06F0074FF1DF001D878
:108A48000AD00500FA6E1C50FD6E1D50FE6EFF6ABE
:108A5800FA50000E120020EE14F01850D9261950C2
:108A6800DA22DE50DE10D8A413D020EED6F01A5049
:108A7800D9261B50DA2210EE11F01850E1261950B1
:108A8800E222E604D8A402D0010E01D0000EDF6E67
:108A980020EE14F01850D9261950DA22DE04DE1020
:108AA800D8A414D020EED7F01A50D9261B50DA22B9
:108AB80010EE11F01850E1261950E222030EE618C4
:108AC800D8A402D0010E01D0000EDF6E20EE16F001
:108AD8001850D9261950DA226F0078FF1CF06F0061
:108AE80074FF1DF0010E1C26000E1D22060E1C1818
:108AF8001D10D8B402D0010E1200020E120066C07A
:108B08006DF067C06EF068C06FF069C070F06A07FA
:108B1800D8A06B076A290FE16B29D8A40CD0000EE6
:108B2800676F000E666F12006D4B6E2B6F4B702BCC
:108B38006A07D8A06B076000B7F1F6FF6000BBF1C9
:108B4800F7FFF86A0800F5500009D8B427D060008C
:108B5800BFF1F6FF6000C3F1F7FFF86A0800F550AF
:108B68000009D8B41BD06A516B11D8B417D0600073
:108B7800B7F1F6FF6000BBF1F7FFF86A08006F0075
:108B8800D4FF6CF06000BFF1F6FF6000C3F1F7FF9F
:108B9800F86A0800F5506C19D8B4C6D76000B7F168
:108BA800F6FF6000BBF1F7FFF86A08006F00D4FF1A
:108BB8006CF06000BFF1F6FF6000C3F1F7FFF86AE0
:108BC8000800F5506C5D666F676BD8A067071200E8
:108BD800000E66156E6F000E67156F6F800E6815B4
:108BE800706F7F0E6915716F6E516F117011711171
:108BF800D8A408D0000E666F000E676F000E686F6D
:108C0800000E696F000E6A156E6F000E6B156F6FA0
:108C1800800E6C15706F7F0E6D15716F6E516F1130
:108C280070117111D8A408D0000E6A6F000E6B6F16
:108C3800000E6C6F000E6D6F69AF09D0666D671F0F
:108C4800D8B0672B681FD8B0682B800E69576DAFF6
:108C580009D06A6D6B1FD8B06B2B6C1FD8B06C2B0A
:108C6800800E6D57000E661B000E671B000E681BFA
:108C7800800E691B000E6A1B000E6B1B000E6C1B1E
:108C8800800E6D1B6A51665D6B5167596C5168594E
:108C98006D516959D8B002D0D8901200D88012000E
:108CA80020EED6F01A50D9261B50DA22DF50D8A46D
:108CB80018D020EE18F01850D9261950DA226F0073
:108CC80078FF1CF06F0074FF1DF001D838D0050044
:108CD800FA6E1C50FD6E1D50FE6EFF6AFA50000EB3
:108CE800120020EE18F01850D9261950DA226F0019
:108CF80078FF1CF06F0074FF1DF001D820D005002C
:108D0800FA6E1C50FD6E1D50FE6EFF6AFA5020EE82
:108D180016F01850D9261950DA226F0078FF1EF085
:108D28006F0074FF1FF01D0E1E24F66E410E1F20EB
:108D3800F76EF86A000EF8220800F550120020EECF
:108D480016F01850D9261950DA226F0078FF1CF057
:108D58006F0074FF1DF0010E1C26000E1D22060E6A
:108D68001C181D10D8B402D0010E1200020E1200F9
:108D780020EE76F0070EDE6AE806FDE26E516F110E
:108D8800701171117211731174117511D8B446D024
:108D9800010E7E6F0AD0D8906E376F3770377137F3
:108DA80072377337743775377E2B75AFF4D7D89011
:108DB80076377737783779377A377B377C377D3727
:108DC8006E51665D6F516759705168597151695993
:108DD80072516A5973516B5974516C5975516D5967
:108DE800D8A011D06E51665F6F51675B7051685B98
:108DF8007151695B72516A5B73516B5B74516C5B47
:108E080075516D5B7681D8907533743373337233D3
:108E1800713370336F336E337E2FC9D776C066F0E7
:108E280077C067F078C068F079C069F07AC06AF0F6
:108E38007BC06BF07CC06CF07DC06DF01200EAC0A6
:108E480070F0EBC071F0ECC072F0EDC073F066C06A
:108E580070F067C071F068C072F069C073F070C0DC
:108E68006AF071C06BF072C06CF073C06DF0180ED0
:108E780005D0D8906D336C336B336A33E82EF9D74D
:108E88006A516E6F6F6B6E516F11D8A419D0D8905C
:108E980070356A6F71356B6F72356C6F73356D6FC6
:108EA8006A516B116C116D11D8A405D0000E676F53
:108EB800020E666F1200000E676F030E666F1200D7
:108EC8006E296F11D8A41CD070C06AF071C06BF005
:108ED80072C06CF073C06DF0090ED8906A376B37AA
:108EE8006C376D37E82EF9D76A516B116C116D111B
:108EF800D8A402D0010E01D0000E666F676B120075
:108F0800000E676F040E666F120037D0000E026EF7
:108F1800020E016E1200000E026E030E016E1200A8
:108F2800000E026E050E016E1200010E0124036E82
:108F3800000E0220046E60000FF0F6FF600013F0D0
:108F4800F7FF000EF86E0F0EF76403D00800F55017
:108F580007D06F00DBFFE1FF6F00DFFFE2FFE750A4
:108F6800056E020E0524016E026A000E022212002E
:108F7800000E026E010E016E1200600007F0F6FF8F
:108F880060000BF0F7FF000EF86E0F0EF76403D0C9
:108F98000800F55007D06F00DBFFE1FF6F00DFFF2F
:108FA800E2FFE750036E046A0450000AD8A4E0D731
:108FB8000350010AD8B4AAD7030AD8B4A7D7010A1C
:108FC800D8B4A9D7070AD8B4ABD7010AD8B4ADD753
:108FD800CFD720EE0AF06C51D9266D51DA2210EE67
:108FE80009F06C51E1266D51E222DE50E618D8B442
:108FF80047D026EC54F066C072F067C073F068C0C2
:1090080074F069C075F020EE05F06C51D9266D51E9
:10901800DA226F0078FF6EF06F0078FF6FF06F0054
:1090280078FF70F06F0078FF71F06E51725D766FA7
:109038006F517359776F70517459786F71517559B1
:10904800796F20EE01F06C51D9266D51DA22DE508D
:10905800765DDE507759DE507859DE507959D8A0C0
:109068000FD020EE09F06C51D9266D51DA2210EE9E
:109078000AF06C51E1266D51E2226F007FFFE7FF95
:1090880020EE0AF06C51D9266D51DA22DF50120019
:109098006851D8B42CD060009BF1F6FF60009FF1B6
:1090A800F7FFF86A08006F00D4FF69F0010E6A6FD5
:1090B800692B02D0D8906A37692FFCD7030E0001BC
:1090C80066256B6F000E67216C6F6000AFF1F6FFCD
:1090D8006000B3F1F7FFF86A09006F00D7FFD9FF06
:1090E80009006F00D7FFDAFF6A51DF121200600033
:1090F8009BF1F6FF60009FF1F7FFF86A08006F0028
:10910800D4FF69F0010E6A6F692B02D0D8906A37D4
:10911800692FFCD700016A51FF0A6B6F030E6625A1
:109128006C6F000E67216D6F6000B3F1F6FF600091
:10913800B7F1F7FFF86A09006F00D7FFD9FF0900F8
:109148006F00D7FFDAFF6B51DF161200B435B53563
:10915800BB6FBB51D8A409D0000EB26F000EB36F1D
:10916800000EB46F000EB56F1200B2C0B6F0B3C0F7
:10917800B7F0B4C0B8F0B5C0B9F0200E05D0D8909B
:10918800B933B833B733B633E82EF9D7B651BA6F17
:10919800B48FFF0EB217FF0EB317FF0EB417000EF1
:1091A800B517960EBB5FBBAF0DD0BB51800A970FAA
:1091B800D8A0D2D7D890B533B433B333B233BB3F8A
:1091C800F9D70DD01F0EBB6507D0C6D7D890B237D8
:1091D800B337B437B537BB07BB51D8A4F7D7BA51A3
:1091E800D8B408D0B51FB41FB31FB26D000EB32397
:1091F800B423B523B2C0B2F0B3C0B3F0B4C0B4F076
:10920800B5C0B5F0120000000000000000002C01FD
:1092180000000000850200000000000000000000BF
:10922800000000000000050704060C0D0E0F0A0BD5
:1092380008099901450092018B0176017D01AE0173
:10924800A7010000000000000000A0018401000048
:109258003E007DFEA8E8A8000071D2A7CE6822A033
:1092680074FEA6F6A800007088A4C879000071B240
:10927800A2FE7200007300A9329ED6A54402A92E50
:109288008A0000450EA9FA8300004D04A96C7B00F2
:1092980000431C97B6740000421C97B67400004047
:1092A80006A98E9600004CD4A8AE8100004708A9F4
:0B92B8008E87000046DEA8D482000074
:1092C40020EE18F01850D9261950DA226F0078FFD2
:1092D4001CF06F0074FF1DF001D820D00500FA6E59
:1092E4001C50FD6E1D50FE6EFF6AFA5020EE16F003
:1092F4001850D9261950DA226F0078FF1EF06F003B
:1093040074FF1FF0170E1E24F66E410E1F20F76E19
:10931400F86A000EF8220800F550120020EED6F08C
:109324001A50D9261B50DA22DE04D8A408D020EE25
:10933400D6F01A50D9261B50DA22020EDF6E20EE28
:1093440016F01850D9261950DA226F0078FF1CF055
:109354006F0074FF1DF0010E1C26000E1D22060E68
:109364001C181D10D8B402D0010E1200020E1200F7
:109374006E516F1170117111721173117411751195
:10938400D8B43CD0010E766F0AD0D8906E376F37C0
:10939400703771377237733774377537762B75AF0B
:1093A400F4D76E51665D6F516759705168597151A8
:1093B400695972516A5973516B5974516C59755189
:1093C4006D59D8A010D06E51665F6F51675B7051B4
:1093D400685B7151695B72516A5B73516B5B745169
:1093E4006C5B75516D5BD890753374337333723322
:1093F400713370336F336E33762FD3D766C066F014
:1094040067C067F068C068F069C069F06AC06AF054
:109414006BC06BF06CC06CF06DC06DF0120020EE90
:1094240010F06651D9266751DA22000EDF6E20EE65
:1094340011F06651D9266751DA22000EDF6E20EE54
:1094440012F06651D9266751DA22000EDE6E000E44
:10945400DD6E20EE14F06651D9266751DA22FD0E36
:10946400DE6EFF0EDD6E20EE16F06651D9266751D2
:10947400DA22FE0EDE6EFF0EDD6E20EE18F066516F
:10948400D9266751DA226000A3F1DEFF6000A7F15C
:10949400DDFF20EE1AF06651D9266751DA22000E5C
:1094A400DF6E20EE1BF06651D9266751DA22000EDA
:1094B400DF6E20EE1CF06651D9266751DA22000EC9
:1094C400DE6E000EDD6E1200000E9C6F000E9B6FB0
:1094D4009BC066F09CC067F0000E696F0B0E686F4E
:1094E40085EC52F0665197256C6F675198216D6F2A
:1094F400010E6E6F020E6F6F000E706F000E716FB3
:10950400000E726FFAEC4CF09B4B9C2B9CBFE0D787
:109514009C5104E1100E9B5DD8A0DAD7000E9E6F1B
:10952400000E9D6F9D519725996F9E5198219A6FBA
:10953400B00E9925D96E000E9A21DA6E7F0EDF6E79
:109544009D4B9E2B9EBFEED79E5104E1040E9D5D64
:10955400D8A0E8D797C085F098C086F03FEC40F0DB
:109564001200F8A10AD07BC070F07CC071F079C001
:1095740072F07AC073F032EC4DF07EBF05D07DC03E
:1095840082F07EC083F004D0000E836F000E826FE1
:10959400000E816F000E806F0CD0000E686F200EDD
:1095A400676F79C069F07AC06AF04EEC4CF0804B7A
:1095B400812B8251805D8151800A7F6F8351800AA3
:1095C4007F59D8A0EAD7F8B10AD07BC070F07CC02C
:1095D40071F079C072F07AC073F032EC4DF07BC058
:1095E40066F07CC067F0E9EC4FF082516625796F34
:1095F400835167217A6F120020EED8F06651D92684
:109604006751DA22DF50D8B409D020EE0FF066514A
:10961400D9266751DA22F30EDF6E120020EED6F05F
:109624006651D9266751DA22DF50D8A409D020EE3A
:109634000FF06651D9266751DA22410EDF6E12000F
:1096440020EED6F06651D9266751DA22DE04D8A47A
:1096540009D020EE0FF06651D9266751DA22730E35
:10966400DF6E120020EED6F06651D9266751DA2259
:10967400020EDE18D8A4120020EE0FF06651D9268F
:109684006751DA22790EDF6E120020EE18F01850BE
:10969400D9261950DA226F0078FF1CF06F0074FF8E
:1096A4001DF001D820D00500FA6E1C50FD6E1D502F
:1096B400FE6EFF6AFA5020EE16F01850D9261950A3
:1096C400DA226F0078FF1EF06F0074FF1FF0110E96
:1096D4001E24F66E410E1F20F76EF86A000EF82263
:1096E4000800F550120020EE16F01850D926195033
:1096F400DA226F0078FF1CF06F0074FF1DF0010E7A
:109704001C26000E1D22060E1C181D10D8B402D0F3
:10971400010E1200020E120020EED8F01A50D926C3
:109724001B50DA22DF50D8B409D0410E506E430EDC
:10973400516E000E536E060E526E1200C40E1A24A1
:10974400506E000E1B20516E20EED6F01A50D92612
:109754001B50DA22DF50D8A405D0000E536E020E3F
:10976400526E120020EED6F01A50D9261B50DA227F
:10977400DE04D8B4DED720EED6F01A50D9261B501A
:10978400DA22020EDE18D8A405D0000E536E120E93
:10979400526E1200000E536E000E526E1200000E36
:1097A400826F000E816F000E846F000E836F83C082
:1097B40066F084C067F0000E696F0B0E686F85EC6D
:1097C40052F066517A256C6F67517B216D6FEDEC19
:1097D40047F07C6F7C517F6F806B83C07CF07FC0CF
:1097E4007DF080C07EF07C2B03D0D8907D377E370F
:1097F4007C2FFBD700017D5181137E518213834B53
:10980400842B84BFD4D7845104E1100E835DD8A087
:10981400CED781C07AF082C07BF01200B60E000170
:109824007A6FA70E7B6F25EC53F0800E00019F6FBB
:10983400050EA06F70EC52F0800E6F6F050E706F06
:10984400C20E726FFC0E716F810E736F420E746FD5
:10985400000E766F010E756F000E786F020E776F33
:10986400EEEC4EF0D50E666F010E676FAA0E686FB0
:10987400A80E696F11EC4AF0800ECC6F050ECD6F07
:1098840092EC51F0D7EC52F0800E0101FA6F050E04
:10989400FB6F47EC54F0F6D769516A11D8B404D081
:1098A40069516A11D8A404D067513FEC54F029D00F
:1098B40020EE09F06951D9266A51DA22DE50DE1011
:1098C400D8B416D020EE09F06951D9266A51DA22AB
:1098D40010EE03F06951E1266A51E222DE50E65CA3
:1098E400E650800A6F6FDE50800A6F59D8B009D0F5
:1098F40020EE03F06951D9266A51DA22DE2A000EDD
:10990400DD2267C067F00001686B1200F7C1E5F063
:10991400F8C1E6F072EC42F0100E0101F7250001E7
:10992400856F000E0101F8210001866F3FEC40F0C5
:10993400F7C166F0F8C167F0FEEC4AF0010E0101D0
:10994400F96F20EED6F0F751D926F851DA22DE0469
:10995400D8B40CD020EED6F0F751D926F851DA223B
:10996400020EDE18D8B402D0000EF96FF951D8B443
:1099740002D0010E01D0000EF7EC53F01200665134
:10998400D96EDA6A0F0ED926410EDF6E6651D96E92
:10999400DA6AD60ED926000EDF6E6651D96EDA6AFF
:1099A400D70ED926000EDF6E6651D96EDA6AD80E4C
:1099B400D926000EDF6E6651D96EDA6AD90ED92621
:1099C400FF0EDF6E6651D96EDA6ADA0ED926000E02
:1099D400DF6E6651D96EDA6ADB0ED926FF0EDF6EB2
:1099E4006651D96EDA6ADC0ED926000EDF6E1200DB
:1099F40020EE01F06C51D9266D51DA226000BFF1DE
:109A0400DEFF6000C3F1DEFF6000C7F1DEFF60002F
:109A1400CBF1DEFF6000B3F1D9FF6000B7F1DAFFEC
:109A24006000BBF1DFFF20EE09F06C51D9266D51C7
:109A3400DA226000BBF1DFFF20EE0AF06C51D92678
:109A44006D51DA226000BBF1DFFF20EE05F06C51AE
:109A5400D9266D51DA22DE6ADE6ADE6ADD6A120018
:109A6400000E786F000E776F0BD076C067F0686BCE
:109A740072C069F073C06AF04EEC4CF0774B782BEF
:109A840077517025746F78517121756F6000D3F12F
:109A9400F6FF6000D7F1F7FF000EF86E0F0EF764C3
:109AA40003D00800F55007D06F00DBFFE1FF6F0023
:109AB400DFFFE2FFE7500001766F7651D8A4D5D7D7
:109AC40077C070F078C071F0120003C00AF004C0CF
:109AD4000BF001C008F002C009F023D060002BF0A5
